:0600000002007B02013D3D
:03000B00020142AD
:0300130002017572
:10007B007404F550758CD8758AF053890043890147
:0E008B00D288D28AD2A8D2A9D2AAD2AFD28C61
:100099007580FFD2B5C241C240D242D243758001B8
:0E00A90020B5FDD2B530430630427A0201196F
:0E00B7003042030200CD75800320B5FDD2B5A6
:1000C50030430280DC0200CD75800220B5FDD2B53B
:0E00D5003043053042E280C93042030200F39E
:1000E30075800620B5FDD2B530430280DD0200F3F2
:1000F30075800420B5FDD2B53043053042E280CA95
:0E01030030420302011975800C20B5FDD2B503
:1001110030430280DD02011975800820B5FDD2B59A
:100121003043053042E280CA30420201A67580099F
:1001310020B5FDD2B530430280DE01A6B242B2B68F
:1001410032D55029F550C2B5B2B420410620401134
:0E01510002016EB41007C241B24302016E04F7
:0F015F0002016EB40405C24002016E1402016E6B
:0E016E00758CD8758AF032D241D240B2B732C9
:00000001FF
