:0300000002007B80
:0F007B001200ED90010F1201027542C01200C376
:0F008A0090011A1201027542CC1200C375413069
:0F0099001200D175428C1200C37541301200D194
:1000A80075F1A0C2B6C2B780FEC3D287C2A5D2A6D8
:0F00B800D2A7A287C2A740F8C2A62211B1C2A543
:1000C700C2A6D2A7854280C2A72211B1D2A5C2A6D5
:1000D700D2A7854180C2A72211B1D2A5D2A6D2A7A5
:1000E700858041C2A72275423811C375420E11C3DC
:1000F70075420111C375428011C3227400936007D2
:10010700F54111D1A380F42220202020475241201D
:0E011700203A002020202050455120203A00A0
:00000001FF
