:0300000002007B80
:0F007B001201B99001DB1201CE7542C012018F44
:0F008A009001EC1201CE7542CC12018F754130FE
:0F00990012019D75428C12018F75413012019D2D
:0F00A80075414775428C12018F12019D75413DC4
:0F00B70075428D12018F12019D7541207542CC4B
:0F00C60012018F12019D75F1A075043075053080
:0F00D500750630750730750000C2B6D2B7D2B0CD
:1000E400D2B1D2B2D2B3D2B412014C30B40280FB3A
:1000F40020B40530B30780F830B30A80FB750006DE
:1001040030B20A80FB20B30A30B20F80F820B40D5D
:1001140080FB75000430B20A80FB75000520B30231
:1001240080FB20B20280FB06050712014CE507C3E1
:100134009439600530B00280B2161507D2B6C2B742
:0E01440012014C30B18580FB85044175428468
:0F01520012018F12019D85054175428912018F9F
:0F01610012019D85064175428E12018F12019D7C
:100170008507417542CB12018F12019D22C3D287A0
:0F018000C2A5D2A6D2A7A287C2A740F8C2A622C4
:10018F00317DC2A5C2A6D2A7854280C2A722317DEA
:10019F00D2A5C2A6D2A7854180C2A722317DD2A502
:0F01AF00D2A6D2A7858041C2A722754238318FD0
:1001BE0075420E318F754201318F754280318F221B
:1001CE007400936007F541319DA380F422202050E6
:1001DE003D3020204D3D302020473D302000202056
:0F01EE00202020544F54414C3D30202020200031
:00000001FF
