:0300000002007B80
:10007B001200C79000E91200DC75F1A0C2B6C2B73E
:0F008B0080FEC3D287C2A5D2A6D2A7A287C2A7E2
:10009A0040F822118DC2A5C2A6D2A7854280C2A766
:0F00AA0022118DD2A5C2A6D2A7854180C2A7225E
:0E00B900118DD2A5D2A6D2A7858041C2A72262
:0F00C700754238119D75420E119D754201119DB4
:1000D600754280119D227400936007F54111ABA310
:1000E60080F42220202020475241203A2020202040
:1000F6002020200020202020504551203A2020207A
:05010600202020200074
:00000001FF
