:0300000002007B80
:0F007B001201C09001E21201D57542C012019628
:0F008A009001ED1201D57542CC120196754130EF
:0F0099001201A475428C1201967541301201A418
:1000A80075F1A075440075450030B014D2B4C2B5DE
:1000B800C2B6D2B7D2A080F130B00530B16580F8B1
:0E00C800D2B4C2B5C2B6D2B720B2FD0200D685
:1000D60020B20530B31980F8E54504B40A02740964
:0F00E600F5452430F5417542CC20B3FD02010CE5
:0E00F500E54404B40A027409F5442430F541D0
:0F01030075428C30B2FD02010C30B3FD12019633
:100112001201A4D2B4C2B5D2B6C2B7D2A0C3E545C9
:0F012200254424EEB392A08095C2B4D2B5D2B6D4
:10013100C2B720B3FD02013920B30530B21980F8EE
:0E014100E54514B4FF027400F5452430F54185
:0F014F007542CC20B2FD02016FE54414B4FF02EB
:0E015E007400F5442430F54175428C30B3FD39
:10016C0002016F30B2FD1201961201A4D2B4C2B5D5
:0F017C00D2B6C2B7D2A001C0C3D287C2A5D2A645
:0F018B00D2A7A287C2A740F8C2A6223184C2A57C
:10019A00C2A6D2A7854280C2A7223184D2A5C2A60E
:1001AA00D2A7854180C2A7223184D2A5D2A6D2A7DE
:1001BA00858041C2A722754238319675420E319622
:1001CA007542013196754280319622740093600718
:1001DA00F54131A4A380F422202020204752412057
:0E01EA00203A002020202050455120203A00CD
:00000001FF
