:0600000002007B02011466
:03000B0002011DD2
:0300130002012CBB
:03001B0002012DB2
:0F007B00754603854647754808754930758911E4
:0F008A0075450A758DFE758B70758C3C758AB047
:0E009900D288D2A8D2A9D2ABD2AFD28ED28C4E
:0F00A7001201807542801201569001A21201953C
:0F00B6007542C01201569001B312019575428533
:0F00C500120156754130120164D2B0D2B1D2A1EE
:1000D40030B00830B11630A12480F5E546B40305EC
:0E00E40030B0FD80EB154630B0FD80E4E546FF
:0F00F200B40A0530B1FD80DA054630B1FD80D388
:0E01010075428F120156854941120164D2A148
:0E010F0075493080C0D548050549754808324D
:10011D00D5441DC2A1754405758C3C758AB032322B
:10012D00D54702B2A0D54508B2A085464775450A08
:10013D00758DFE758B7032C3D287C2A5D2A6D2A79C
:0F014D00A287C2A740F8C2A6223144C2A5C2A60B
:10015C00D2A7854280C2A7223144D2A5C2A6D2A77B
:0E016C00854180C2A7223144D2A5D2A6D2A7D7
:10017A00858041C2A722754238315675420E3156E2
:10018A0075420131567542803156227400936007D8
:10019A00F5413164A380F422526F7461636F657311
:1001AA002F34356D733A2020002020202020202073
:0A01BA00202020202020202020001B
:00000001FF
