:0600000002007B0200A0DB
:03000B000200AB45
:030013000200AC3C
:03001B000200B729
:0F007B0075450385454675891075440A758DFED8
:10008A00758B70758805D288D28AD2A8D2AAD2ABCB
:10009A00D2AFD28E80FEE545B403030200AA15450D
:0F00AA003232E545B40A030200B6054532B2A171
:1000B900D54602B2A0D54408B2A085454675440A82
:1000C900758DFE758B7032C3D287C2A5D2A6D2A711
:0F00D900A287C2A740F8C2A62211D0C2A5C2A614
:1000E800D2A7854280C2A72211D0D2A5C2A6D2A784
:0E00F800854180C2A72211D0D2A5D2A6D2A7E0
:10010600858041C2A72275423811E275420E11E27E
:1001160075420111E275428011E222740093600774
:10012600F54111F0A380F4222056454C20414A5552
:100136005354203A002056454C20415455414C20FA
:020146003A007D
:00000001FF
